{
  "_format": "hh-sol-artifact-1",
  "contractName": "CampaignFactory",
  "sourceName": "contracts/Campaign.sol",
  "abi": [
    {
      "anonymous": false,
      "inputs": [
        {
          "indexed": false,
          "internalType": "string",
          "name": "title",
          "type": "string"
        },
        {
          "indexed": false,
          "internalType": "uint256",
          "name": "requiredAmount",
          "type": "uint256"
        },
        {
          "indexed": true,
          "internalType": "address",
          "name": "owner",
          "type": "address"
        },
        {
          "indexed": false,
          "internalType": "address",
          "name": "campaignAddress",
          "type": "address"
        },
        {
          "indexed": false,
          "internalType": "string",
          "name": "imageURI",
          "type": "string"
        },
        {
          "indexed": true,
          "internalType": "uint256",
          "name": "timestamp",
          "type": "uint256"
        },
        {
          "indexed": true,
          "internalType": "string",
          "name": "category",
          "type": "string"
        }
      ],
      "name": "campaignCreated",
      "type": "event"
    },
    {
      "inputs": [
        {
          "internalType": "string",
          "name": "campaignTitle",
          "type": "string"
        },
        {
          "internalType": "uint256",
          "name": "campaignRequiredAmount",
          "type": "uint256"
        },
        {
          "internalType": "string",
          "name": "imageURI",
          "type": "string"
        },
        {
          "internalType": "string",
          "name": "description",
          "type": "string"
        },
        {
          "internalType": "string",
          "name": "campaignCategory",
          "type": "string"
        }
      ],
      "name": "createCampaign",
      "outputs": [],
      "stateMutability": "nonpayable",
      "type": "function"
    },
    {
      "inputs": [
        {
          "internalType": "uint256",
          "name": "",
          "type": "uint256"
        }
      ],
      "name": "deployedCampaign",
      "outputs": [
        {
          "internalType": "address",
          "name": "",
          "type": "address"
        }
      ],
      "stateMutability": "view",
      "type": "function"
    }
  ],
  "bytecode": "0x608060405234801561001057600080fd5b50611689806100206000396000f3fe60806040523480156200001157600080fd5b50600436106200003a5760003560e01c8063b7ccb9ab146200003f578063c658857d1462000075575b600080fd5b6200005d600480360381019062000057919062000253565b62000095565b6040516200006c9190620002ca565b60405180910390f35b6200009360048036038101906200008d919062000449565b620000d5565b005b60008181548110620000a657600080fd5b906000526020600020016000915054906101000a900473ffffffffffffffffffffffffffffffffffffffff1681565b6000858585858533604051620000eb90620001f6565b620000fc96959493929190620005e7565b604051809103906000f08015801562000119573d6000803e3d6000fd5b5090506000819080600181540180825580915050600190039060005260206000200160009091909190916101000a81548173ffffffffffffffffffffffffffffffffffffffff021916908373ffffffffffffffffffffffffffffffffffffffff160217905550816040516200018f9190620006b2565b6040518091039020423373ffffffffffffffffffffffffffffffffffffffff167ff932d905365211c7f19fda44bcb55b1adbe63365f7cdae1c35ddcb3e38ed1d468989868a604051620001e69493929190620006cb565b60405180910390a4505050505050565b610f2d806200072783390190565b6000604051905090565b600080fd5b600080fd5b6000819050919050565b6200022d8162000218565b81146200023957600080fd5b50565b6000813590506200024d8162000222565b92915050565b6000602082840312156200026c576200026b6200020e565b5b60006200027c848285016200023c565b91505092915050565b600073ffffffffffffffffffffffffffffffffffffffff82169050919050565b6000620002b28262000285565b9050919050565b620002c481620002a5565b82525050565b6000602082019050620002e16000830184620002b9565b92915050565b600080fd5b600080fd5b6000601f19601f8301169050919050565b7f4e487b7100000000000000000000000000000000000000000000000000000000600052604160045260246000fd5b6200033c82620002f1565b810181811067ffffffffffffffff821117156200035e576200035d62000302565b5b80604052505050565b60006200037362000204565b905062000381828262000331565b919050565b600067ffffffffffffffff821115620003a457620003a362000302565b5b620003af82620002f1565b9050602081019050919050565b82818337600083830152505050565b6000620003e2620003dc8462000386565b62000367565b905082815260208101848484011115620004015762000400620002ec565b5b6200040e848285620003bc565b509392505050565b600082601f8301126200042e576200042d620002e7565b5b813562000440848260208601620003cb565b91505092915050565b600080600080600060a086880312156200046857620004676200020e565b5b600086013567ffffffffffffffff81111562000489576200048862000213565b5b620004978882890162000416565b9550506020620004aa888289016200023c565b945050604086013567ffffffffffffffff811115620004ce57620004cd62000213565b5b620004dc8882890162000416565b935050606086013567ffffffffffffffff8111156200050057620004ff62000213565b5b6200050e8882890162000416565b925050608086013567ffffffffffffffff81111562000532576200053162000213565b5b620005408882890162000416565b9150509295509295909350565b600081519050919050565b600082825260208201905092915050565b60005b83811015620005895780820151818401526020810190506200056c565b60008484015250505050565b6000620005a2826200054d565b620005ae818562000558565b9350620005c081856020860162000569565b620005cb81620002f1565b840191505092915050565b620005e18162000218565b82525050565b600060c082019050818103600083015262000603818962000595565b9050620006146020830188620005d6565b818103604083015262000628818762000595565b905081810360608301526200063e818662000595565b9050818103608083015262000654818562000595565b90506200066560a0830184620002b9565b979650505050505050565b600081905092915050565b600062000688826200054d565b62000694818562000670565b9350620006a681856020860162000569565b80840191505092915050565b6000620006c082846200067b565b915081905092915050565b60006080820190508181036000830152620006e7818762000595565b9050620006f86020830186620005d6565b620007076040830185620002b9565b81810360608301526200071b818462000595565b90509594505050505056fe60806040523480156200001157600080fd5b5060405162000f2d38038062000f2d833981810160405281019062000037919062000306565b85600090816200004891906200065f565b508460018190555083600290816200006191906200065f565b5082600390816200007391906200065f565b5081600490816200008591906200065f565b5080600560006101000a81548173ffffffffffffffffffffffffffffffffffffffff021916908373ffffffffffffffffffffffffffffffffffffffff16021790555050505050505062000746565b6000604051905090565b600080fd5b600080fd5b600080fd5b600080fd5b6000601f19601f8301169050919050565b7f4e487b7100000000000000000000000000000000000000000000000000000000600052604160045260246000fd5b6200013c82620000f1565b810181811067ffffffffffffffff821117156200015e576200015d62000102565b5b80604052505050565b600062000173620000d3565b905062000181828262000131565b919050565b600067ffffffffffffffff821115620001a457620001a362000102565b5b620001af82620000f1565b9050602081019050919050565b60005b83811015620001dc578082015181840152602081019050620001bf565b60008484015250505050565b6000620001ff620001f98462000186565b62000167565b9050828152602081018484840111156200021e576200021d620000ec565b5b6200022b848285620001bc565b509392505050565b600082601f8301126200024b576200024a620000e7565b5b81516200025d848260208601620001e8565b91505092915050565b6000819050919050565b6200027b8162000266565b81146200028757600080fd5b50565b6000815190506200029b8162000270565b92915050565b600073ffffffffffffffffffffffffffffffffffffffff82169050919050565b6000620002ce82620002a1565b9050919050565b620002e081620002c1565b8114620002ec57600080fd5b50565b6000815190506200030081620002d5565b92915050565b60008060008060008060c08789031215620003265762000325620000dd565b5b600087015167ffffffffffffffff811115620003475762000346620000e2565b5b6200035589828a0162000233565b96505060206200036889828a016200028a565b955050604087015167ffffffffffffffff8111156200038c576200038b620000e2565b5b6200039a89828a0162000233565b945050606087015167ffffffffffffffff811115620003be57620003bd620000e2565b5b620003cc89828a0162000233565b935050608087015167ffffffffffffffff811115620003f057620003ef620000e2565b5b620003fe89828a0162000233565b92505060a06200041189828a01620002ef565b9150509295509295509295565b600081519050919050565b7f4e487b7100000000000000000000000000000000000000000000000000000000600052602260045260246000fd5b600060028204905060018216806200047157607f821691505b60208210810362000487576200048662000429565b5b50919050565b60008190508160005260206000209050919050565b60006020601f8301049050919050565b600082821b905092915050565b600060088302620004f17fffffffffffffffffffffffffffffffffffffffffffffffffffffffffffffffff82620004b2565b620004fd8683620004b2565b95508019841693508086168417925050509392505050565b6000819050919050565b6000620005406200053a620005348462000266565b62000515565b62000266565b9050919050565b6000819050919050565b6200055c836200051f565b620005746200056b8262000547565b848454620004bf565b825550505050565b600090565b6200058b6200057c565b6200059881848462000551565b505050565b5b81811015620005c057620005b460008262000581565b6001810190506200059e565b5050565b601f8211156200060f57620005d9816200048d565b620005e484620004a2565b81016020851015620005f4578190505b6200060c6200060385620004a2565b8301826200059d565b50505b505050565b600082821c905092915050565b6000620006346000198460080262000614565b1980831691505092915050565b60006200064f838362000621565b9150826002028217905092915050565b6200066a826200041e565b67ffffffffffffffff81111562000686576200068562000102565b5b62000692825462000458565b6200069f828285620005c4565b600060209050601f831160018114620006d75760008415620006c2578287015190505b620006ce858262000641565b8655506200073e565b601f198416620006e7866200048d565b60005b828110156200071157848901518255600182019150602085019450602081019050620006ea565b868310156200073157848901516200072d601f89168262000621565b8355505b6001600288020188555050505b505050505050565b6107d780620007566000396000f3fe60806040526004361061007b5760003560e01c80639632e7201161004e5780639632e7201461012c578063ed88c68e14610157578063ef430aa614610161578063f3ccaac01461018c5761007b565b806346c922d11461008057806348b9ef40146100ab5780634a79d50c146100d65780638da5cb5b14610101575b600080fd5b34801561008c57600080fd5b506100956101b7565b6040516100a291906105c0565b60405180910390f35b3480156100b757600080fd5b506100c0610245565b6040516100cd91906105fb565b60405180910390f35b3480156100e257600080fd5b506100eb61024b565b6040516100f891906105c0565b60405180910390f35b34801561010d57600080fd5b506101166102d9565b6040516101239190610657565b60405180910390f35b34801561013857600080fd5b506101416102ff565b60405161014e91906105fb565b60405180910390f35b61015f610305565b005b34801561016d57600080fd5b50610176610414565b60405161018391906105c0565b60405180910390f35b34801561019857600080fd5b506101a16104a2565b6040516101ae91906105c0565b60405180910390f35b600380546101c4906106a1565b80601f01602080910402602001604051908101604052809291908181526020018280546101f0906106a1565b801561023d5780601f106102125761010080835404028352916020019161023d565b820191906000526020600020905b81548152906001019060200180831161022057829003601f168201915b505050505081565b60015481565b60008054610258906106a1565b80601f0160208091040260200160405190810160405280929190818152602001828054610284906106a1565b80156102d15780601f106102a6576101008083540402835291602001916102d1565b820191906000526020600020905b8154815290600101906020018083116102b457829003601f168201915b505050505081565b600560009054906101000a900473ffffffffffffffffffffffffffffffffffffffff1681565b60065481565b6006546001541161034b576040517f08c379a00000000000000000000000000000000000000000000000000000000081526004016103429061071e565b60405180910390fd5b600560009054906101000a900473ffffffffffffffffffffffffffffffffffffffff1673ffffffffffffffffffffffffffffffffffffffff166108fc349081150290604051600060405180830381858888f193505050501580156103b3573d6000803e3d6000fd5b5034600660008282546103c6919061076d565b9250508190555042343373ffffffffffffffffffffffffffffffffffffffff167fe6add99d06d9ad7fc456e746aa162eed6211c5002ef2dacdd67b8d2016822fba60405160405180910390a4565b60048054610421906106a1565b80601f016020809104026020016040519081016040528092919081815260200182805461044d906106a1565b801561049a5780601f1061046f5761010080835404028352916020019161049a565b820191906000526020600020905b81548152906001019060200180831161047d57829003601f168201915b505050505081565b600280546104af906106a1565b80601f01602080910402602001604051908101604052809291908181526020018280546104db906106a1565b80156105285780601f106104fd57610100808354040283529160200191610528565b820191906000526020600020905b81548152906001019060200180831161050b57829003601f168201915b505050505081565b600081519050919050565b600082825260208201905092915050565b60005b8381101561056a57808201518184015260208101905061054f565b60008484015250505050565b6000601f19601f8301169050919050565b600061059282610530565b61059c818561053b565b93506105ac81856020860161054c565b6105b581610576565b840191505092915050565b600060208201905081810360008301526105da8184610587565b905092915050565b6000819050919050565b6105f5816105e2565b82525050565b600060208201905061061060008301846105ec565b92915050565b600073ffffffffffffffffffffffffffffffffffffffff82169050919050565b600061064182610616565b9050919050565b61065181610636565b82525050565b600060208201905061066c6000830184610648565b92915050565b7f4e487b7100000000000000000000000000000000000000000000000000000000600052602260045260246000fd5b600060028204905060018216806106b957607f821691505b6020821081036106cc576106cb610672565b5b50919050565b7f526571756972656420416d6f756e742046756c6c66696c6c6564000000000000600082015250565b6000610708601a8361053b565b9150610713826106d2565b602082019050919050565b60006020820190508181036000830152610737816106fb565b9050919050565b7f4e487b7100000000000000000000000000000000000000000000000000000000600052601160045260246000fd5b6000610778826105e2565b9150610783836105e2565b925082820190508082111561079b5761079a61073e565b5b9291505056fea26469706673582212202ebc4d8614480b09b2dda5fc089ff42d6aef96798dd72cb2671a82953ba8dc8564736f6c63430008110033a2646970667358221220d6adf923d3f85a33a65c68040f6c755aceaaf5e7d1e3a1f7bf2b5aea62d3ca8c64736f6c63430008110033",
  "linkReferences": {},
  "deployedLinkReferences": {}
}