{
  "_format": "hh-sol-artifact-1",
  "contractName": "CampaignFactory",
  "sourceName": "contracts/Campaign.sol",
  "abi": [
    {
      "anonymous": false,
      "inputs": [
        {
          "indexed": false,
          "internalType": "string",
          "name": "title",
          "type": "string"
        },
        {
          "indexed": false,
          "internalType": "uint256",
          "name": "requiredAmount",
          "type": "uint256"
        },
        {
          "indexed": true,
          "internalType": "address",
          "name": "owner",
          "type": "address"
        },
        {
          "indexed": false,
          "internalType": "address",
          "name": "campaignAddress",
          "type": "address"
        },
        {
          "indexed": false,
          "internalType": "string",
          "name": "imageURI",
          "type": "string"
        },
        {
          "indexed": true,
          "internalType": "uint256",
          "name": "timestamp",
          "type": "uint256"
        },
        {
          "indexed": true,
          "internalType": "string",
          "name": "category",
          "type": "string"
        }
      ],
      "name": "campaignCreated",
      "type": "event"
    },
    {
      "inputs": [
        {
          "internalType": "string",
          "name": "campaignTitle",
          "type": "string"
        },
        {
          "internalType": "uint256",
          "name": "campaignRequiredAmount",
          "type": "uint256"
        },
        {
          "internalType": "string",
          "name": "imageURI",
          "type": "string"
        },
        {
          "internalType": "string",
          "name": "storyURI",
          "type": "string"
        },
        {
          "internalType": "string",
          "name": "campaignCategory",
          "type": "string"
        }
      ],
      "name": "createCampaign",
      "outputs": [],
      "stateMutability": "nonpayable",
      "type": "function"
    },
    {
      "inputs": [
        {
          "internalType": "uint256",
          "name": "",
          "type": "uint256"
        }
      ],
      "name": "deployedCampaign",
      "outputs": [
        {
          "internalType": "address",
          "name": "",
          "type": "address"
        }
      ],
      "stateMutability": "view",
      "type": "function"
    }
  ],
  "bytecode": "0x608060405234801561001057600080fd5b506116f9806100206000396000f3fe60806040523480156200001157600080fd5b50600436106200003a5760003560e01c8063b7ccb9ab146200003f578063c658857d1462000075575b600080fd5b6200005d600480360381019062000057919062000251565b62000095565b6040516200006c9190620002c8565b60405180910390f35b6200009360048036038101906200008d919062000447565b620000d5565b005b60008181548110620000a657600080fd5b906000526020600020016000915054906101000a900473ffffffffffffffffffffffffffffffffffffffff1681565b60008585858585604051620000ea90620001f4565b620000fa959493929190620005e5565b604051809103906000f08015801562000117573d6000803e3d6000fd5b5090506000819080600181540180825580915050600190039060005260206000200160009091909190916101000a81548173ffffffffffffffffffffffffffffffffffffffff021916908373ffffffffffffffffffffffffffffffffffffffff160217905550816040516200018d9190620006a0565b6040518091039020423373ffffffffffffffffffffffffffffffffffffffff167ff932d905365211c7f19fda44bcb55b1adbe63365f7cdae1c35ddcb3e38ed1d468989868a604051620001e49493929190620006b9565b60405180910390a4505050505050565b610faf806200071583390190565b6000604051905090565b600080fd5b600080fd5b6000819050919050565b6200022b8162000216565b81146200023757600080fd5b50565b6000813590506200024b8162000220565b92915050565b6000602082840312156200026a57620002696200020c565b5b60006200027a848285016200023a565b91505092915050565b600073ffffffffffffffffffffffffffffffffffffffff82169050919050565b6000620002b08262000283565b9050919050565b620002c281620002a3565b82525050565b6000602082019050620002df6000830184620002b7565b92915050565b600080fd5b600080fd5b6000601f19601f8301169050919050565b7f4e487b7100000000000000000000000000000000000000000000000000000000600052604160045260246000fd5b6200033a82620002ef565b810181811067ffffffffffffffff821117156200035c576200035b62000300565b5b80604052505050565b60006200037162000202565b90506200037f82826200032f565b919050565b600067ffffffffffffffff821115620003a257620003a162000300565b5b620003ad82620002ef565b9050602081019050919050565b82818337600083830152505050565b6000620003e0620003da8462000384565b62000365565b905082815260208101848484011115620003ff57620003fe620002ea565b5b6200040c848285620003ba565b509392505050565b600082601f8301126200042c576200042b620002e5565b5b81356200043e848260208601620003c9565b91505092915050565b600080600080600060a086880312156200046657620004656200020c565b5b600086013567ffffffffffffffff81111562000487576200048662000211565b5b620004958882890162000414565b9550506020620004a8888289016200023a565b945050604086013567ffffffffffffffff811115620004cc57620004cb62000211565b5b620004da8882890162000414565b935050606086013567ffffffffffffffff811115620004fe57620004fd62000211565b5b6200050c8882890162000414565b925050608086013567ffffffffffffffff81111562000530576200052f62000211565b5b6200053e8882890162000414565b9150509295509295909350565b600081519050919050565b600082825260208201905092915050565b60005b83811015620005875780820151818401526020810190506200056a565b60008484015250505050565b6000620005a0826200054b565b620005ac818562000556565b9350620005be81856020860162000567565b620005c981620002ef565b840191505092915050565b620005df8162000216565b82525050565b600060a082019050818103600083015262000601818862000593565b9050620006126020830187620005d4565b818103604083015262000626818662000593565b905081810360608301526200063c818562000593565b9050818103608083015262000652818462000593565b90509695505050505050565b600081905092915050565b600062000676826200054b565b6200068281856200065e565b93506200069481856020860162000567565b80840191505092915050565b6000620006ae828462000669565b915081905092915050565b60006080820190508181036000830152620006d5818762000593565b9050620006e66020830186620005d4565b620006f56040830185620002b7565b818103606083015262000709818462000593565b90509594505050505056fe60806040523480156200001157600080fd5b5060405162000faf38038062000faf8339818101604052810190620000379190620002a0565b8460009081620000489190620005e5565b50836001819055508260029081620000619190620005e5565b508160039081620000739190620005e5565b508060049081620000859190620005e5565b5033600560006101000a81548173ffffffffffffffffffffffffffffffffffffffff021916908373ffffffffffffffffffffffffffffffffffffffff1602179055505050505050620006cc565b6000604051905090565b600080fd5b600080fd5b600080fd5b600080fd5b6000601f19601f8301169050919050565b7f4e487b7100000000000000000000000000000000000000000000000000000000600052604160045260246000fd5b6200013b82620000f0565b810181811067ffffffffffffffff821117156200015d576200015c62000101565b5b80604052505050565b600062000172620000d2565b905062000180828262000130565b919050565b600067ffffffffffffffff821115620001a357620001a262000101565b5b620001ae82620000f0565b9050602081019050919050565b60005b83811015620001db578082015181840152602081019050620001be565b60008484015250505050565b6000620001fe620001f88462000185565b62000166565b9050828152602081018484840111156200021d576200021c620000eb565b5b6200022a848285620001bb565b509392505050565b600082601f8301126200024a5762000249620000e6565b5b81516200025c848260208601620001e7565b91505092915050565b6000819050919050565b6200027a8162000265565b81146200028657600080fd5b50565b6000815190506200029a816200026f565b92915050565b600080600080600060a08688031215620002bf57620002be620000dc565b5b600086015167ffffffffffffffff811115620002e057620002df620000e1565b5b620002ee8882890162000232565b9550506020620003018882890162000289565b945050604086015167ffffffffffffffff811115620003255762000324620000e1565b5b620003338882890162000232565b935050606086015167ffffffffffffffff811115620003575762000356620000e1565b5b620003658882890162000232565b925050608086015167ffffffffffffffff811115620003895762000388620000e1565b5b620003978882890162000232565b9150509295509295909350565b600081519050919050565b7f4e487b7100000000000000000000000000000000000000000000000000000000600052602260045260246000fd5b60006002820490506001821680620003f757607f821691505b6020821081036200040d576200040c620003af565b5b50919050565b60008190508160005260206000209050919050565b60006020601f8301049050919050565b600082821b905092915050565b600060088302620004777fffffffffffffffffffffffffffffffffffffffffffffffffffffffffffffffff8262000438565b62000483868362000438565b95508019841693508086168417925050509392505050565b6000819050919050565b6000620004c6620004c0620004ba8462000265565b6200049b565b62000265565b9050919050565b6000819050919050565b620004e283620004a5565b620004fa620004f182620004cd565b84845462000445565b825550505050565b600090565b6200051162000502565b6200051e818484620004d7565b505050565b5b8181101562000546576200053a60008262000507565b60018101905062000524565b5050565b601f82111562000595576200055f8162000413565b6200056a8462000428565b810160208510156200057a578190505b62000592620005898562000428565b83018262000523565b50505b505050565b600082821c905092915050565b6000620005ba600019846008026200059a565b1980831691505092915050565b6000620005d58383620005a7565b9150826002028217905092915050565b620005f082620003a4565b67ffffffffffffffff8111156200060c576200060b62000101565b5b620006188254620003de565b620006258282856200054a565b600060209050601f8311600181146200065d576000841562000648578287015190505b620006548582620005c7565b865550620006c4565b601f1984166200066d8662000413565b60005b82811015620006975784890151825560018201915060208501945060208101905062000670565b86831015620006b75784890151620006b3601f891682620005a7565b8355505b6001600288020188555050505b505050505050565b6108d380620006dc6000396000f3fe60806040526004361061007b5760003560e01c80639632e7201161004e5780639632e7201461012c578063ed88c68e14610157578063ef430aa614610161578063f3ccaac01461018c5761007b565b806346c922d11461008057806348b9ef40146100ab5780634a79d50c146100d65780638da5cb5b14610101575b600080fd5b34801561008c57600080fd5b506100956101b7565b6040516100a29190610650565b60405180910390f35b3480156100b757600080fd5b506100c0610245565b6040516100cd919061068b565b60405180910390f35b3480156100e257600080fd5b506100eb61024b565b6040516100f89190610650565b60405180910390f35b34801561010d57600080fd5b506101166102d9565b60405161012391906106e7565b60405180910390f35b34801561013857600080fd5b506101416102ff565b60405161014e919061068b565b60405180910390f35b61015f610305565b005b34801561016d57600080fd5b506101766104a4565b6040516101839190610650565b60405180910390f35b34801561019857600080fd5b506101a1610532565b6040516101ae9190610650565b60405180910390f35b600380546101c490610731565b80601f01602080910402602001604051908101604052809291908181526020018280546101f090610731565b801561023d5780601f106102125761010080835404028352916020019161023d565b820191906000526020600020905b81548152906001019060200180831161022057829003601f168201915b505050505081565b60015481565b6000805461025890610731565b80601f016020809104026020016040519081016040528092919081815260200182805461028490610731565b80156102d15780601f106102a6576101008083540402835291602001916102d1565b820191906000526020600020905b8154815290600101906020018083116102b457829003601f168201915b505050505081565b600560009054906101000a900473ffffffffffffffffffffffffffffffffffffffff1681565b60065481565b3373ffffffffffffffffffffffffffffffffffffffff16600560009054906101000a900473ffffffffffffffffffffffffffffffffffffffff1673ffffffffffffffffffffffffffffffffffffffff1603610395576040517f08c379a000000000000000000000000000000000000000000000000000000000815260040161038c906107ae565b60405180910390fd5b600654600154116103db576040517f08c379a00000000000000000000000000000000000000000000000000000000081526004016103d29061081a565b60405180910390fd5b600560009054906101000a900473ffffffffffffffffffffffffffffffffffffffff1673ffffffffffffffffffffffffffffffffffffffff166108fc349081150290604051600060405180830381858888f19350505050158015610443573d6000803e3d6000fd5b5034600660008282546104569190610869565b9250508190555042343373ffffffffffffffffffffffffffffffffffffffff167fe6add99d06d9ad7fc456e746aa162eed6211c5002ef2dacdd67b8d2016822fba60405160405180910390a4565b600480546104b190610731565b80601f01602080910402602001604051908101604052809291908181526020018280546104dd90610731565b801561052a5780601f106104ff5761010080835404028352916020019161052a565b820191906000526020600020905b81548152906001019060200180831161050d57829003601f168201915b505050505081565b6002805461053f90610731565b80601f016020809104026020016040519081016040528092919081815260200182805461056b90610731565b80156105b85780601f1061058d576101008083540402835291602001916105b8565b820191906000526020600020905b81548152906001019060200180831161059b57829003601f168201915b505050505081565b600081519050919050565b600082825260208201905092915050565b60005b838110156105fa5780820151818401526020810190506105df565b60008484015250505050565b6000601f19601f8301169050919050565b6000610622826105c0565b61062c81856105cb565b935061063c8185602086016105dc565b61064581610606565b840191505092915050565b6000602082019050818103600083015261066a8184610617565b905092915050565b6000819050919050565b61068581610672565b82525050565b60006020820190506106a0600083018461067c565b92915050565b600073ffffffffffffffffffffffffffffffffffffffff82169050919050565b60006106d1826106a6565b9050919050565b6106e1816106c6565b82525050565b60006020820190506106fc60008301846106d8565b92915050565b7f4e487b7100000000000000000000000000000000000000000000000000000000600052602260045260246000fd5b6000600282049050600182168061074957607f821691505b60208210810361075c5761075b610702565b5b50919050565b7f596f752063616e277420646f6e61746520666f72206f776e206361706169676e600082015250565b60006107986020836105cb565b91506107a382610762565b602082019050919050565b600060208201905081810360008301526107c78161078b565b9050919050565b7f526571756972656420416d6f756e742046756c6c66696c6c6564000000000000600082015250565b6000610804601a836105cb565b915061080f826107ce565b602082019050919050565b60006020820190508181036000830152610833816107f7565b9050919050565b7f4e487b7100000000000000000000000000000000000000000000000000000000600052601160045260246000fd5b600061087482610672565b915061087f83610672565b92508282019050808211156108975761089661083a565b5b9291505056fea2646970667358221220176f85cb94226247f573c765130b9f24abca842ceb6d4104dcf14aaf470258d564736f6c63430008110033a26469706673582212208b94eb6e0bee17f5edd924aff63d3209b44de4dc4ecac3158e2855c07c5e4ade64736f6c63430008110033",
  "linkReferences": {},
  "deployedLinkReferences": {}
}